:10009700E4F508F50912022C750E027BA87A007D9B
:1000A700017F02120114750E087BAA7A007D047F76
:1000B7000212014D0509E509700205087FE87E0374
:1000C700120240750E03AB09AA087D017F011201D8
:0300D700F980E1CC
:06025400C2A58F80D2A7B5
:08025A007F027EEFDEFEDFFCF7
:010262002279
:0A026F00C2A6120254C2A702025AEE
:1001DB00CFCDCFCECCCE1200427C007D0A12004296
:0401EB00ED2430FFD0
:0A01EF00D2A6120254C2A702025A5F
:10021600AE07BE0104ED148006BE0209ED243F447C
:0602260080FF12026F22AE
:10022C007F3812026F7F0C12026F7F0612026F7FF3
:04023C000102026F4A
:0A027900AC03120216AF040201EFFD
:0601B8008B1A8A1B891C52
:1001BE00120216E4FDAB1AAA1BA91C8D82758300D0
:0C01CE00120003FF60061201EF0D80E933
:0101DA002202
:0C0185007F0AEA24FFFDE434FFFC7E004A
:080191008E0F8F108C118D12EE
:100199007F017E00E4FBEBC39512E5116480F874DE
:0E01A9008098500AAC0FAD101200300B80E8A9
:0101B7002225
:0401F9008A0C8B0DD4
:1001FD00120216AA0EEAD39400400D120185AC0C22
:08020D00AD0D1201DB1A80EDBA
:0102150022C6
:1000DA00120216C3EA64809480400B7F2B1201EF50
:1000EA008A188B19800E7F2D1201EFC3E49BF51934
:1000FA00E49AF518AA17EAD39400400D120185ACC8
:09010A0018AD191201DB1A80ED99
:0101130022C9
:040114008A0C8B0DB9
:10011800120216AA0EEAD3940040297F1012018712
:10012800AC0CAD0DCFCDCFCECCCE120042EF540FDC
:10013800FEC3940AEE5004243080022437FF1201D3
:04014800EF1A80D159
:01014C002290
:04014D008A0C8B0D80
:10015100120216AA0EEAD394004028EA24FFFDE415
:1001610034FFFC7F027E00120191AC0CAD0DCFCDAE
:10017100CFCECCCE120042EF54012430FF1201EF5A
:030181001A80D20F
:010184002258
:10024000EF4E600F7D027CC7DCFEDDFCEF1F70F01F
:030250001E80ED20
:010253002288
:0300000002026396
:0C026300787FE4F6D8FD75811C0200973E
:10000300BB010CE58229F582E5833AF583E02250B2
:1000130006E92582F8E622BBFE06E92582F8E222FC
:0D002300E58229F582E5833AF583E4932216
:10003000EF8DF0A4A8F0CF8CF0A428CE8DF0A42EE4
:02004000FE229E
:10004200BC000BBE0029EF8DF084FFADF022E4CCA2
:10005200F875F008EF2FFFEE33FEEC33FCEE9DEC6B
:10006200984005FCEE9DFE0FD5F0E9E4CEFD22EDB1
:10007200F8F5F0EE8420D21CFEADF075F008EF2FFB
:10008200FFED33FD4007985006D5F0F222C398FDEC
:050092000FD5F0EA2289
:00000001FF
