:020000040800F2
:10000000880600202902000801030008FD020008FC
:10001000FF020008E3020008D90400080000000005
:10002000000000000000000000000000A90300081C
:10003000E502000800000000030300086504000852
:10004000430200084302000843020008430200087C
:10005000430200084302000843020008430200086C
:10006000430200084302000843020008430200085C
:10007000430200084302000843020008430200084C
:10008000430200084302000843020008430200083C
:10009000430200084302000843020008430200082C
:1000A000430200084302000843020008430200081C
:1000B000430200084302000843020008430200080C
:1000C00043020008430200084302000843020008FC
:1000D00043020008430200084302000843020008EC
:1000E00043020008430200084302000843020008DC
:1000F00043020008430200084302000843020008CC
:1001000043020008430200084302000843020008BB
:1001100043020008430200084302000843020008AB
:10012000430200084302000843020008430200089B
:10013000430200084302000843020008430200088B
:10014000430200084302000843020008430200087B
:10015000430200084302000843020008430200086B
:10016000430200084302000843020008430200085B
:10017000430200084302000843020008430200084B
:10018000430200084302000800F002F800F03CF8C7
:100190000AA090E8000C82448344AAF10107DA45E2
:1001A00001D100F031F8AFF2090EBAE80F0013F0F8
:1001B000010F18BFFB1A43F0010318476803000042
:1001C00088030000103A24BF78C878C1FAD85207D3
:1001D00024BF30C830C144BF04680C6070470000C1
:1001E0000023002400250026103A28BF78C1FBD840
:1001F000520728BF30C148BF0B6070471FB500F0E1
:100200008BF91FBD10B510BD00F031F81146FFF796
:10021000F5FF00F063F900F04FF803B4FFF7F2FFC9
:1002200003BC00F057F80000094880470948004720
:10023000FEE7FEE7FEE7FEE7FEE7FEE7FEE7FEE796
:10024000FEE7FEE704480549054A064B70470000F3
:100250006904000889010008880000208806002041
:10026000880200208802002070477047704775465A
:1002700000F02CF8AE4605006946534620F0070012
:10028000854618B020B5FFF7DDFFBDE820404FF0F0
:1002900000064FF000074FF000084FF0000B21F070
:1002A0000701AC46ACE8C009ACE8C009ACE8C0093D
:1002B000ACE8C0098D46704710B50446AFF3008026
:1002C0002046BDE81040FFF7A8BF00000048704777
:1002D0002400002001491820ABBEFEE726000200E2
:1002E0007047FEE77047000001B5034800990160C0
:1002F00001680029FCD108BD10000020FEE7FEE7E0
:100300007047704770B5244B196801F00C01234CFD
:1003100000291ED0224E04291DD008291DD00460BA
:10032000196801F0F00109091E4A545C0168E140B6
:1003300041601C6804F4E054A40A145D21FA04F43A
:1003400084601B6803F460435B0BD25CD140C160E6
:1003500070BD0460E4E70660E2E70F4A121F11680F
:10036000C1F38055116801F03F0135B1B6FBF1F1E1
:100370001468C4F38814614305E0B4FBF1F1146818
:10038000C4F3881461431268C2F30142521C520044
:10039000B1FBF2F10160C3E7083802400024F40029
:1003A00040787D0100000020704700000CB500225D
:1003B000019200922749086840F4803008604FF4A9
:1003C000A043086800F4003000900198401C0190A0
:1003D000009810B901989842F3D10868800302D5BB
:1003E0000120009000E000920098012831D11948C6
:1003F0004030026842F0805202601748026842F4BE
:10040000404202601348083002680260026842F409
:1004100000420260026842F4A0520260021F0F4BC9
:1004200013600A6842F080720A600A689201FCD583
:100430000B4A40F205711160016821F0030101606F
:10044000016841F0020101600168C1F381010229E4
:10045000FAD10CBD0038024000700040195440072A
:10046000003C024000F02EB810B51248016841F47B
:10047000700101601048016841F0010101600E4AFD
:1004800000210832116002680C4B1A400260031D03
:100490000B4A1A60026822F48022026006480C307F
:1004A0000160FFF783FF03494FF000608039086067
:1004B00010BD000088ED00E000380240FFFFF6FEAE
:1004C0001030002403480168002902D00168491E49
:1004D0000160704710000020FEE700000C48FFF7A5
:1004E00011FF0B4864214068B0FBF1F0401EB0F1F1
:1004F000807F09D24FF0E0214861064AF020107059
:1005000000208861072008610520FFF7EDFEFEE767
:100510001400002023ED00E04FF04070E1EE100ADF
:10052000704700004405000800000020140000008F
:10053000C4010008580500081400002074060000DB
:10054000E0010008000000000102030401020304AE
:08055000060708090000000085
:040000050800018965
:00000001FF
