:020000040800F2
:10000000B806002029020008431200083511000834
:10001000411200081F040008CB1500080000000072
:10002000000000000000000000000000471200086F
:1000300021040008000000004512000849120008D1
:10004000430200084302000843020008430200087C
:10005000430200084302000843020008430200086C
:10006000430200084302000843020008430200085C
:10007000430200084302000843020008430200084C
:10008000430200084302000843020008430200083C
:10009000430200084302000843020008430200082C
:1000A000430200084302000843020008430200081C
:1000B000430200084302000843020008430200080C
:1000C00043020008430200084302000843020008FC
:1000D00043020008430200084302000843020008EC
:1000E00043020008430200084302000843020008DC
:1000F00043020008430200084302000843020008CC
:1001000043020008430200084302000843020008BB
:1001100043020008430200084302000843020008AB
:10012000430200084302000843020008430200089B
:10013000430200084302000843020008430200088B
:10014000430200084302000843020008430200087B
:10015000430200084302000843020008430200086B
:10016000430200084302000843020008430200085B
:100170004302000843020008430200080000000098
:10018000430200084302000800F002F800F03CF8C7
:100190000AA090E8000C82448344AAF10107DA45E2
:1001A00001D100F031F8AFF2090EBAE80F0013F0F8
:1001B000010F18BFFB1A43F001031847BC140000DD
:1001C000DC140000103A24BF78C878C1FAD852076E
:1001D00024BF30C830C144BF04680C6070470000C1
:1001E0000023002400250026103A28BF78C1FBD840
:1001F000520728BF30C148BF0B6070471FB501F0E0
:100200002DFA1FBD10B510BD00F0CFF81146FFF755
:10021000F5FF01F0FBF900F0EDF803B4FFF7F2FF92
:1002200003BC00F0F5F80000094880470948004782
:10023000FEE7FEE7FEE7FEE7FEE7FEE7FEE7FEE796
:10024000FEE7FEE704480549054A064B70470000F3
:10025000E112000889010008B8000020B80600205B
:10026000B8020020B802002053EA020C00F06980B6
:100270002DE9F04B4FF00006002B1FBFB3FA83F5BA
:1002800003FA05F424FA05F65E4012BF1643B2FAEB
:1002900082F502FA05F4C5F120051EBF22FA05FC1D
:1002A00044EA0C04203556EA044C4FEA144418BFC3
:1002B000641C4FF000084FF00009904271EB030CF2
:1002C00039D3002919BFB1FA81F701FA07F6B0FA5C
:1002D00080F700FA07F6C7F120071EBF20FA07FCD7
:1002E00046EA0C062037B6FBF4FCA7EB0507103FE7
:1002F00007F01F0BCBF120060CFA0BFB2CFA06F6CD
:1003000044BFB3460026202FA4BF5E464FF0000B2B
:100310005BEA060C08BF4FF0010B19EB0B09ABFBB6
:10032000027C48EB0608C01B06FB02CC0BFB03CC8F
:1003300071EB0C01C1E70B46024641464846BDE859
:10034000F08B13B54FF000004FF00001AFF30080C9
:10035000BDE81C4070474FF0000200B513469446BC
:100360009646203922BFA0E80C50A0E80C50B1F10D
:100370002001BFF4F7AF090728BFA0E80C5048BF21
:100380000CC05DF804EB890028BF40F8042B08BFBF
:10039000704748BF20F8022B11F0804F18BF00F8BB
:1003A000012B7047704770477047754600F02CF876
:1003B000AE4605006946534620F00700854618B052
:1003C00020B5FFF73FFFBDE820404FF000064FF09B
:1003D00000074FF000084FF0000B21F00701AC467A
:1003E000ACE8C009ACE8C009ACE8C009ACE8C00999
:1003F0008D46704710B50446AFF300802046BDE837
:100400001040FFF70ABF0000004870475800002066
:1004100001491820ABBEFEE7260002007047FEE748
:100420007047000070B5044600F006F90546601CF0
:1004300002D004480078044400F0FEF8401BA042BB
:10044000FAD370BD000000202DE9F84FDFF8BCA101
:100450000022012503264FF00F090AF1040BAAF12F
:10046000040E00BF0B6805FA02F42340A34270D1CA
:100470000F7907F00307012F01D0022F16D18768EB
:100480004FEA420806FA08FC27EA0C07D1F80CC02C
:100490000CFA08FC4CEA070CC0F808C04768A743F0
:1004A0000C79C4F3001494403C4344600C79E44359
:1004B000A4070AD0C4684FEA420C06FA0CF7BC4302
:1004C0008F6807FA0CF72743C7600C7904F0030420
:1004D000022C12D1D40800EB840CDCF82040570722
:1004E000FF0E09FA07F824EA0804D1F8108008FA88
:1004F00007F848EA0408CCF8208004684FEA420C68
:1005000006FA0CF7BC430F7907F0030707FA0CF75C
:10051000274307604C6814F4403F70D03C4C276878
:1005200047F480472760246822F0030704F48044DE
:100530000094384C07EB040CDCF8084897074FEAA6
:10054000177809FA08F7BC43334FB84202D10027A5
:1005500024E054E0314FB84201D101271EE0304F72
:10056000B84201D1022719E02E4FB84201D103272A
:1005700014E02D4FB84201D104270FE02B4FB842B1
:1005800001D105270AE02A4FB84201D1062705E02C
:10059000284FB84201D1072700E0082707FA08F7DB
:1005A0002743CCF80878DAF800405746D1F804C061
:1005B0009C435FEACC2C00D51C433C60DBF8004038
:1005C0005F46D1F804C09C435FEA8C2C00D51C43E5
:1005D0003C60DEF800407746D1F804C09C435FEAF7
:1005E0008C3C00D51C433C60084F083F3C68D1F868
:1005F00004C09C435FEACC3C00D51C433C60521CC9
:10060000102AFFF42FAFBDE8F88F0000083C01402E
:100610004438024000300140000002400004024023
:1006200000080240000C024000100240001402408A
:1006300000180240001C024001488068704700001A
:1006400000000020024881680278114481607047F0
:10065000000000200B4810B5016841F400710160F2
:10066000016841F480610160016841F480710160BA
:10067000032000F061F80F2000F006F800F024F8E5
:10068000002010BD003C024070B50D4D04464FF4F3
:100690007A712878B1FBF0F00A490968B1FBF0F0F3
:1006A00000F0DEFA48B9102C07D200222146501E75
:1006B00000F022F800206C6070BD012070BD0000C9
:1006C000000000200C0000200A4808B5016841F431
:1006D00080410160006800F4804000900548001FE0
:1006E000016841F080510160006800F08050009086
:1006F00008BD000044380240F0B40E4B1B680C46A5
:10070000C3F30223C3F10705042D00D90425191DE5
:10071000072901D2002300E0DB1E012606FA05F1BD
:10072000491E214099409E40761E16403143F0BC40
:1007300000F04CBF0CED00E0064900F0070208682D
:100740004FF6FF03184040EA0220034A10430860B6
:10075000704700000CED00E00000FA052DE9F047BD
:100760000E46050065D0DFF81481D8F80000F7B216
:1007700000F00700B04207D288F80070D8F80000F7
:1007800000F00700B04254D128683D4C810712D5D3
:10079000400703D5206840F4E05020602878000727
:1007A00003D5206840F4604020602068A96820F0EC
:1007B000F000084320602878C0072DD030496868D1
:1007C0000839012812D0022813D0032811D0096853
:1007D000890700292DDA216821F0030101432160F6
:1007E000FFF72AFF814641F2883A0EE00968890343
:1007F000EFE709688901ECE7FFF71EFFA0EB0901AD
:10080000514502D90320BDE8F0872068696800F0EF
:100810000C00B0EB810FEFD1D8F80010404601F08A
:100820000701B14207D90770006800F00700B04225
:1008300001D00120E7E72878400705D52068E9685E
:1008400020F4E050084320602878000706D520688F
:10085000296920F4604040EAC100206000F018F8E7
:100860002168084AC1F30311515CC8400649086079
:1008700006480068FFF708FF0020C4E7003C02407C
:1008800008380240661600080C0000200400002012
:10089000154810B5006810F00C02144813D0144924
:1008A000042A0FD0082A0ED10F4C241F2268236877
:1008B00002F03F025B0207D52068C0F38810A0FB5E
:1008C000010106E0084610BD2168C1F38811A1FBB3
:1008D00000010023FFF7C8FC2168C1F30141491C56
:1008E0004900B0FBF1F010BD083802400024F400CC
:1008F000001BB7002DE9F84F04006ED02078DFF818
:100900004C93C007A9F104054AD009F1040001681D
:10091000C1F38101012908D00068C0F381000228D9
:100920000AD1D9F80000400206D52868800337D5DF
:1009300060680028E1D033E06068B0F5803F10D0F7
:10094000B0F5A02F286810D020F4803028602868E7
:1009500020F4802028606068A8B1FFF76DFE06468D
:100960000DE0286840F48030F4E740F480202860EF
:10097000F7E700BFFFF760FE801B642873D8286884
:100980008003F7D50CE0FFF757FE064605E000BFF1
:10099000FFF752FE801B6428F0D828688003F7D444
:1009A0002078DFF8AC8280074FF0000A3ED5A748D8
:1009B000001D016811F00C0F08D00068C0F3810021
:1009C00002280BD1D9F80000400207D4286880071C
:1009D00016D5E068012800D112E033E1E068B8B133
:1009E0000120C8F80000FFF727FE064605E000BF1B
:1009F000FFF722FE801B0228C0D828688007F7D5A1
:100A00002868216920F0F80040EAC10028600DE064
:100A1000C8F800A0FFF710FE064604E0FFF70CFE42
:100A2000801B02281FD828688007F7D42078000789
:100A300022D5864F87486169703771B10121016005
:100A4000FFF7FAFD064604E0FFF7F6FD801B0228DB
:100A500009D838688007F7D50EE0C0F800A0FFF786
:100A6000EBFD064605E082E0FFF7E6FD801B02286D
:100A70007DD838688007F7D42078400768D5DFF83C
:100A8000CCB100270BF13C0BDBF80000C0000BD40D
:100A9000DBF8001041F08051CBF80010DBF80000CB
:100AA000012700F0805000906B4E3068C00510D4D4
:100AB000306840F480703060FFF7BEFD009005E0C4
:100AC000FFF7BAFD0099401A022850D83068C005D7
:100AD000F6D55E4EA0686C3601280FD00528306828
:100AE00010D020F001003060306820F00400306049
:100AF000A068B8B1FFF7A0FD00900FE0306840F0AB
:100B00000100F4E740F004003060F7E7FFF794FDE0
:100B10000099411A41F28830814266D830688007D6
:100B2000F4D50EE0FFF788FD009007E0FFF784FDA5
:100B30000099411A41F28830814256D830688007C6
:100B4000F4D42FB1DBF8001021F08051CBF8001065
:100B5000A069C8B33D49091D0968C1F38101022993
:100B60004AD00228504607D0C8F8600000E03CE0B8
:100B7000FFF762FD04463BE04746C8F86000FFF718
:100B80005BFD064605E000BFFFF756FD801B02280F
:100B90002BD828688001F7D4D4E907010843A16A5B
:100BA0002E4A490802EB0141626A41EA8211084378
:100BB00094F82C1040EA0161C9F800100120386651
:100BC000FFF73AFD044606E03EE000BFFFF734FDC4
:100BD000001B022809D828688001F7D534E000BF3F
:100BE000FFF72AFD001B022802D90320BDE8F88F79
:100BF00028688001F4D427E00128F7D0D9F8000054
:100C0000E26900F4800191421CD1226A00F03F01A8
:100C1000914217D147F6C071626A0140B1EB821F61
:100C200010D1A26A4FF0FF3300F4403103EB5202BF
:100C3000B1EB024F06D194F82C1000F07060B0EBCD
:100C4000016F01D00120D1E70020CFE70438024036
:100C500000004742800E4742007000400000FFFF46
:100C600010B5401EB0F1807F01D3012010BD4FF0C0
:100C7000E02460610F21601700F0A8FC0020A06153
:100C800007202061002010BD70B590F83C20012A9B
:100C900032D0012480F83C40022280F83D200368D5
:100CA0005A689D6822F070060A6832435A60134BF6
:100CB00002689A4214D0B2F1804F11D0104B9A4280
:100CC0000ED0104B9A420BD00F4B9A4208D00F4BCC
:100CD0009A4205D00E4B9A4202D00E4B9A4204D152
:100CE000496825F080031943916080F83D40002158
:100CF00080F83C10084670BD022070BD0000014025
:100D00000004004000080040000C004000040140C6
:100D1000004001400018004010B5040003D094F8D2
:100D20003D0010B107E0012010BD002084F83C0018
:100D3000204600F01FF8022084F83D00211D2068A5
:100D400000F0D6FA012084F8460084F83E0084F8CA
:100D50003F0084F8400084F8410084F8420084F8A1
:100D6000430084F8440084F8450084F83D000020E6
:100D700010BD000008B500680649884208D1064841
:100D8000016841F004010160006800F00400009077
:100D900008BD0000000800404038024090F83D10B7
:100DA000012901D001207047022180F83D10006820
:100DB0001149884214D0B0F1804F11D00F498842B8
:100DC0000ED00F4988420BD00E49884208D00E49F8
:100DD000884205D00D49884202D00D49884204D18D
:100DE000816801F00701062903D0016841F0010183
:100DF0000160002070470000000001400004004036
:100E000000080040000C0040000401400040014088
:100E10000018004070B5044690F83C0000250128F9
:100E200017D0012684F83C60022084F83D00206839
:100E3000826822F0770222F47F428260086850289C
:100E400038D00DDC20284FD005DC90B3102811D10C
:100E50004AE0022070BD302846D040280AD13BE04D
:100E600060282FD070280DD0B0F5805F03D0B0F58A
:100E7000005F12D0012584F83D60002084F83C001A
:100E8000284670BDCB68D1E90121206800F0A5FAA1
:100E90002068816841F0770109E0CB68D1E9012140
:100EA000206800F09AFA2068816841F480418160EE
:100EB000E1E719E0CA684968206800F063FB502147
:100EC000206806E0CA684968206800F06CFB602171
:100ED000206800F08CFACEE7CA684968206800F004
:100EE00051FB40212068F4E7226801461046F0E7F4
:100EF00010B586B0044614216846FFF72CFA0E4957
:100F00002068884215D10D480021026842F0020293
:100F10000260006800F0020005904FF480700090BD
:100F20000220CDE90101CDE9031069460448FFF72D
:100F30008BFA06B010BD00000008004030380240B7
:100F40000004024070B5044690F83C0000260D46AF
:100F500001280FD0012084F83C006AB1042A1DD07A
:100F6000082A2FD00C2A3FD00126002084F83C000C
:100F7000304670BD022070BD206800F041FA206844
:100F8000816941F0080181612068816921F00401D3
:100F90008161206881692A69114311E0206800F0AD
:100FA0005FFA2068816941F400618161206881698C
:100FB00021F480618161206881692A6941EA022106
:100FC0008161D2E7206800F081FA2068C16941F0B0
:100FD0000801C1612068C16921F00401C161206874
:100FE000C1692A69114311E0206800F0A3FA206862
:100FF000C16941F40061C1612068C16921F4806167
:10100000C1612068C1692A6941EA0221C161ACE776
:1010100010B5040003D094F83D0010B107E00120A2
:1010200010BD002084F83C00204600F01EF802208D
:1010300084F83D00211D206800F05AF9012084F851
:10104000460084F83E0084F83F0084F8400084F8AD
:10105000410084F8420084F8430084F8440084F896
:10106000450084F83D00002010BD704710B50446CF
:10107000022249B104290ED0082913D094F8410066
:10108000012816D0012010BD94F83E000128F9D1A6
:1010900084F83E200FE094F83F000128F2D184F854
:1010A0003F2008E094F840000128EBD184F840206C
:1010B00001E084F841200122206800F081F91649FE
:1010C0002068164A884201D0904203D1436C43F411
:1010D000004343642068884213D0B0F1804F10D0A1
:1010E0000F4988420DD00F4988420AD00E498842E4
:1010F00007D0904205D00D49884202D00C49884261
:1011000004D1816801F00701062903D0016841F08C
:1011100001010160002010BD0000014000040140F9
:101120000004004000080040000C00400040014066
:1011300000180040FEE7000010B5164886B00024F5
:10114000016841F002010160016801F002010591AE
:10115000016841F001010160016801F001010591A0
:10116000016841F0800101600068142100F08000F6
:1011700005906846FFF7EFF84FF48070009002206A
:10118000CDE90104CDE9034069460348FFF75CF966
:1011900006B010BD303802400004024010B58EB0D9
:1011A00000240794089409940A940B941C2168461F
:1011B0000C94FFF7D0F821481F49C0E9001445F20C
:1011C0000721C0E9024104618461FFF7A5FD08B170
:1011D00072B6FEE74FF48050079007A91748FFF753
:1011E00019FE08B172B6FEE71448FFF711FF08B107
:1011F00072B6FEE70B940BA910480C94FFF744FD60
:1012000008B172B6FEE76020009042F21070CDE99E
:1012100001040822694609480494FFF793FE08B1C7
:1012200072B6FEE708210548FFF720FF0348FFF7E5
:101230005FFE0EB010BD000000080040100000204E
:10124000FEE7FEE770477047FFF7FCB930B593B093
:1012500030216846FFF77FF814210CA8FFF77BF8D0
:101260001D480025016841F080510160006800F0D0
:10127000805011901948016841F480410160006874
:10128000022400F48040119001200090000401909D
:101290008001CDE9064006200890A820CDE9090488
:1012A00004200B906846FFF725FB08B172B6FEE7F5
:1012B0000CA90F2081E831004FF4A0500F904FF49B
:1012C0008050109005210CA8FFF748FA002801D0A3
:1012D00072B6FEE713B030BD4038024000700040E7
:1012E0000248016841F470010160704788ED00E038
:1012F000F0B50268274B284D284E294F294C4FF056
:10130000804C984209D0604507D0A84205D0B04231
:1013100003D0B84201D0A04204D122F0700E4A6836
:1013200042EA0E0298421BD0604519D0A84217D05D
:10133000B04215D0B84213D0A04211D01A4DA842E5
:101340000ED01A4DA8420BD0194DA84208D0194D05
:10135000A84205D0184DA84202D0184DA84203D18A
:1013600022F44075CA682A434D6922F080022A435C
:101370008D68C5620D688562984201D0A04201D196
:1013800009690163016841F00401016001214161C3
:101390000260F0BD00000140000400400008004071
:1013A000000C0040000401400040014000440140A6
:1013B0000048014000180040001C00400020004090
:1013C00010B501F01F030121046A99408C430462A7
:1013D000016A9A401143016210BD10B5846842EA67
:1013E000032224F47F440A432243826010BD8268B2
:1013F00022F070020A4342F007018160704700004A
:10140000F0B5036A026A22F001020262426884694E
:10141000124E24F073050C682C4323F002058B68F0
:101420002B430D4DA84201D0B04205D123F008074F
:10143000CB683B4323F00403A84201D0B04205D15E
:101440004D6922F4407215438A692A4342608461DF
:10145000496841630362F0BD00000140000401409F
:10146000F0B5026A036A23F01003036243688469DB
:101470000D6824F4E64444EA05248D6822F0200235
:1014800042EA05120F4D104EA84201D0B04206D1DB
:10149000CF6822F0800242EA071222F04002A842FE
:1014A00001D0B04207D14D6923F4406343EA85037C
:1014B0008D6943EA85034360846149688163026200
:1014C000F0BD00000000014000040140F0B5026AD8
:1014D000036A23F4807303624368C46922F40072D0
:1014E00024F073050C68124E2C438D6842EA0522E5
:1014F0000E4DA84201D0B04206D1CF6822F400625E
:1015000042EA072222F48062A84201D0B04207D109
:101510004D6923F4405343EA05138D6943EA0513EB
:101520004360C4614968C1630262F0BD00000140CC
:101530000004014030B5046A026A22F4805202625B
:101540004268C3690D6823F4E64343EA05238D68C6
:1015500024F4005444EA0534084DA84202D0084D52
:10156000A84204D14D6922F4804242EA85124260C9
:10157000C36149680164046230BD0000000001409D
:101580000004014010B5036A046A24F001040462F7
:10159000846924F0F00444EA021423F00A020A43A6
:1015A0008461026210BD10B5036A046A24F010045D
:1015B0000462846923F0A00324F4704444EA0232F4
:1015C00043EA01118261016210BDFEE70907090EBD
:1015D000002804DB00F1E02080F80014704700F0E0
:1015E0000F0000F1E02080F8141D7047064A1368D0
:1015F0009862136845F20720D8621068C1631168C9
:101600000020486270470000100000204FF00008E2
:1016100045F2072740F2E73644464546FFF71AF8F9
:10162000FFF714FEFFF788FDFFF7B8FD0A48FFF744
:10163000B5FB641C6D1CA4B2ADB2BC4200D94446DB
:10164000B54200D9002521462846FFF7CFFF0120EB
:10165000FEF7E8FEEDE70000100000204FF04070BC
:10166000E1EE100A704700000000000000000102D7
:10167000030406070809000098160008000000206F
:1016800010000000C4010008A81600081000002087
:10169000A8060000E00100080100000010000000A2
:0816A000000000000024F4002A
:040000050800018965
:00000001FF
