:0B03DD004D61747269784B65793A003D
:1002FE0012039A7BFF7A0379DD7D017F01120326BB
:10030E001200038F08E50860F7FB7A00750D027D79
:08031E00017F0212036780E871
:0603C200C2A58F80D2A746
:0803C8007F027EEFDEFEDFFC88
:0103D000220A
:0A03E800C2A61203C2C2A70203C896
:10034900CFCDCFCECCCE1201CB7C007D0A1201CB12
:04035900ED2430FF60
:0A035D00D2A61203C2C2A70203C811
:10038400AE07BE0104ED148006BE0209ED243F440D
:0603940080FF1203E822C5
:10039A007F381203E87F0C1203E87F061203E87F16
:0403AA00010203E861
:0A03F200AC03120384AF0402035DA4
:060326008B098A0A890B15
:10032C00120384E4FDAB09AA0AA90B8D8275830024
:0C033C0012018CFF600612035D0D80E9C9
:010348002292
:0C02CB007F0AEA24FFFDE434FFFC7E0003
:0802D7008E0E8F0F8C108D11AB
:1002DF007F017E00E4FBEBC39511E5106480F87499
:0E02EF008098500AAC0EAD0F1201B90B80E8DA
:0102FD0022DE
:040367008A0B8B0C66
:10036B00120384AA0DEAD39400400D1202CBAC0BFE
:08037B00AD0C1203491A80EDDC
:010383002257
:10022000120384C3EA64809480400B7F2B12035D29
:100230008A178B18800E7F2D12035DC3E49BF5187F
:10024000E49AF517AA16EAD39400400D1202CBAC3B
:0902500017AD181203491A80EDE4
:010259002282
:04025A008A1B8B1C54
:10025E00120384AA1DEAD3940040297F101202CD06
:10026E00AC1BAD1CCFCDCFCECCCE1201CBEF540FED
:10027E00FEC3940AEE5004243080022437FF12038A
:04028E005D1A80D1A4
:010292002249
:040293008A208B2111
:10029700120384AA22EAD394004028EA24FFFDE44B
:1002A70034FFFC7F027E001202D7AC20AD21CFCDF8
:1002B700CFCECCCE1201CBEF54012430FF12035D19
:0302C7001A80D2C8
:0102CA002211
:10000300E4F5097590FFC2932097137F14FE120342
:10001300AE3097FD7F147E001203AE750901209662
:10002300147F147E001203AE3096FD7F147E0012FF
:1000330003AE7509052095147F147E001203AE30BC
:1000430095FD7F147E001203AE7509092094147F79
:10005300147E001203AE3094FD7F147E001203AEB3
:1000630075090D7590FFC2922097147F147E0012BC
:1000730003AE3097FD7F147E001203AE7509022094
:1000830096147F147E001203AE3096FD7F147E001B
:100093001203AE7509062095147F147E001203AE79
:1000A3003095FD7F147E001203AE75090A20941467
:1000B3007F147E001203AE3094FD7F147E00120382
:1000C300AE75090E7590FFC2912097147F147E00C0
:1000D3001203AE3097FD7F147E001203AE75090341
:1000E3002096147F147E001203AE3096FD7F147E9B
:1000F300001203AE7509072095147F147E001203C6
:10010300AE3095FD7F147E001203AE75090B20946B
:10011300147F147E001203AE3094FD7F147E001210
:1001230003AE75090F7590FFC2902097147F147E5C
:10013300001203AE3097FD7F147E001203AE7509E3
:10014300042096147F147E001203AE3096FD7F14B4
:100153007E001203AE7509082095147F147E0012E9
:1001630003AE3095FD7F147E001203AE75090C209B
:1001730094147F147E001203AE3094FD7F147E002E
:080183001203AE750910AF096B
:01018B002251
:1003AE00EF4E600F7D027CC7DCFEDDFCEF1F70F0B0
:0303BE001E80EDB1
:0103C1002219
:030000000203D127
:0C03D100787FE4F6D8FD7581220202FE60
:10018C00BB010CE58229F582E5833AF583E0225028
:10019C0006E92582F8E622BBFE06E92582F8E22272
:0D01AC00E58229F582E5833AF583E493228C
:1001B900EF8DF0A4A8F0CF8CF0A428CE8DF0A42E5A
:0201C900FE2214
:1001CB00BC000BBE0029EF8DF084FFADF022E4CC18
:1001DB00F875F008EF2FFFEE33FEEC33FCEE9DECE1
:1001EB00984005FCEE9DFE0FD5F0E9E4CEFD22ED27
:1001FB00F8F5F0EE8420D21CFEADF075F008EF2F71
:10020B00FFED33FD4007985006D5F0F222C398FD61
:05021B000FD5F0EA22FE
:00000001FF
