:1009A600543A0054483A00544C3A004F563A4800DC
:0A09B6004F563A4C0020202020008C
:10046D00120A6A7FE87E03120A32E4FF1208098F2E
:10047D000F7F011208098F0AD3E50F648094FD5098
:10048D0016C3E50A64809449400DD3E50A6480F8EB
:10049D00E50F6480985006750F14750A0F120A4700
:1004AD007BFF7A0979A67D017F011208B17BFF7A66
:1004BD000979A97D017F021208B17BFF7A0979AD17
:1004CD007D097F021208B1E50FFB3395E0FA75192E
:1004DD00037D047F021206F2E50AFB3395E0FA75FF
:1004ED0019037D0C7F021206F21209D9120AB68F7A
:1004FD0010120A6A1208398F0E8E0D8D0C8C0BE4BA
:10050D00FFFEFDFCAB0EAA0DA90CA80B1201B450F9
:10051D001E7B2D7D037F01120A99AF0EAE0DAD0C22
:10052D00AC0B12022D8F148E138D128C1180157B36
:10053D002B7D037F01120A99850E14850D13850CF1
:10054D0012850B11AF14AE13AD12AC1112027CABB0
:10055D0007AA067519037D047F011209507B2E7DB4
:10056D00077F01120A99E4FFFE7DC87C42AB14AAF5
:10057D0013A912A81112000E12027CE47B64FAF981
:10058D00F81203CD7519027D087F01120950E5108F
:10059D00700302063AB4010E050FD3E50F64809483
:1005AD00FD4003750F7DE510B40211150FD3E50A5B
:1005BD006480F8E50F6480985002050FE510B403D0
:1005CD0011050AC3E50F6480F8E50A6480984002BE
:1005DD00150AE510B4040E150AC3E50A64809449A2
:1005ED005003750AC9E50FFB3395E0FA7519037DC4
:1005FD00047F021206F2E50AFB3395E0FA75190342
:10060D007D0C7F021206F2E50FFD3395E0FCE4FF51
:10061D0012088D7F057E00120A32E50AFD3395E042
:10062D00FC7F0112088D7F057E00120A32AC0FECA3
:10063D00120248AB0EAA0DA90CA80B1201B460133F
:10064D0040117BFF7A0979B17D0D7F011208B17FD1
:10065D00648022AC0AEC120248AB0EAA0DA90CA8BC
:10066D000B1201B450177BFF7A0979B67D0D7F010E
:10067D001208B17FC87E001208D40204F97BFF7AFC
:0D068D000979BB7D0D7F011208B10204F94F
:03000B0002069A50
:10069A00C0E0C0F0C083C082C0D075D000C000C026
:0D06AA0001C002C003C004C005C006C007A7
:1006B700758A18758CFC0509E50970020508C3944D
:1006C70014E50894004009750800750900120765CC
:1006D700D007D006D005D004D003D002D001D00077
:0B06E700D0D0D082D083D0F0D0E03221
:100A3200EF1FAC0670011E4C600A7D027CEFDCFEEB
:040A4200DDFC80EC6B
:010A4600228D
:060A5B00C2A58F80D2A7A6
:080A61007F027EEFDEFEDFFCE8
:010A6900226A
:0A0A8F00C2A6120A5BC2A7020A61A8
:1008F600CFCDCFCECCCE12033C7C007D0A12033C7A
:04090600ED2430FFAD
:0A090A00D2A6120A5BC2A7020A611E
:1009F000AE07BE0104ED148006BE0209ED243F449B
:060A000080FF120A8F22A4
:100A47007F38120A8F7F0C120A8F7F06120A8F7F58
:040A570001020A8FFF
:0A0A9900AC031209F0AF0402090AD1
:0608B1008B158A16891761
:1008B7001209F0E4FDAB15AA16A9178D82758300FE
:0C08C7001202FDFF600612090A0D80E914
:0108D3002202
:0C07D6007F0AEA24FFFDE434FFFC7E00F3
:0807E2008E1C8F1D8C1E8D1F63
:1007EA007F017E00E4FBEBC3951FE51E6480F8746D
:0E07FA008098500AAC1CAD1D12032A0B80E83B
:0108080022CD
:040950008A178B185F
:100954001209F0AA19EAD39400400D1207D6AC1775
:08096400AD181208F61A80ED2F
:01096C002268
:1006F2001209F0C3EA64809480400B7F2B12090A2E
:100702008A1A8B1B800E7F2D12090AC3E49BF51BEC
:10071200E49AF51AAA19EAD39400400D1207D6AC4E
:090722001AAD1B1208F61A80ED55
:01072B0022AB
:04072C008A228B236F
:100730001209F0AA24EAD3940040297F101207D8A6
:10074000AC22AD23CFCDCFCECCCE12033CEF540F95
:10075000FEC3940AEE5004243080022437FF1209AD
:040760000A1A80D120
:010764002272
:04079E008A278B28F3
:1007A2001209F0AA29EAD394004028EA24FFFDE4C2
:1007B20034FFFC7F027E001207E2AC27AD28CFCDCA
:1007C200CFCECCCE12033CEF54012430FF12090AE3
:0307D2001A80D2B8
:0107D5002201
:10088D008F158C168D17120AAD7FA0120864120AEF
:10089D0077AF15120864120A77AF17120864120A9F
:0408AD0077020003CB
:020809008F1549
:10080B00120AAD7FA0120864120A77AF15120864A2
:10081B00120A77120AAD7FA1120864120A77120925
:0D082B00148F167F01120AA3120003AF16EE
:01083800229D
:090AAD00D2A0D2A1C2A0C2A12274
:07000300C2A0D2A1D2A0228D
:02086400AD07DE
:10086600E4FB74807E00A803088006CEA2E713CEC0
:1008760013D8F8FFEDF582EF558224FF92A0D2A19E
:06088600C2A10BBB08DC5F
:01088C002249
:10091400E4FFD2A0FED2A130A00D7480A806088006
:0D09240002C313D8FC4207C2A10EBE08E8B2
:0109310022A3
:0A0AA300EF24FF92A0D2A1C2A1220D
:0B0A7700D2A0D2A1A2A0E433FFC2A1D4
:010A82002251
:0D0A6A001209327FCC1209C07F440209C07E
:100839001209327FCC1209C07FBE1209C012096D9C
:100849008F1512096DEFFEE515FFFDAC06EC1202DE
:0B08590043E4FBFA79807841020117AC
:10093200C2AFD2B7C2B77FF7DFFED2B77F20DFFEEA
:0D094200A2B7E433FE7FF7DFFED2AFAF06B1
:01094F002285
:100A0600C2AFC2B77E04DEFEEF24FF92B77E18DEC9
:050A1600FED2B7D2AFD3
:010A1B0022B8
:10098A00C2AFC2B77F02DFFED2B77F02DFFEA2B7D5
:0B099A00E433FE7F18DFFED2AFAF0693
:0109A500222F
:0209C000AD0781
:1009C200E4FC7401A804088002C333D8FC5DFF1262
:0609D2000A060CBC08EC53
:0109D80022FC
:10096D00E4FDFC12098AEF600D7401A804088002F1
:0C097D00C333D8FC42050CBC08E9AF05F0
:01098900224B
:050AB600E4AF2CF52C5B
:010ABB002218
:100A1C00E4FF20B1010F20B0027F0220B2027F035D
:050A2C0020B3027F046D
:010A310022A2
:10076500852A2B120A1C8F2AE52BB40107E52A706E
:1007750003752C01E52BB40207E52A7003752C02DD
:10078500E52BB40307E52A7003752C03E52BB404A8
:0807950007E52A7003752C042E
:01079D002239
:1009D9005389F0438901758A18758CFCC28DD28CB4
:0709E900D2A9D2AFC2B9226E
:050ABC00007FE3DFFEF6
:010AC1002212
:0408D400AD07AC06BA
:1008D800E4FBFAED25E0FFEC33FEC3EB9FEA9E5004
:0D08E8000CB2A5120ABC0BBB00010A80E691
:0108F50022E0
:10000E00EC4D6011E8497017ED33EC3304600DE4EC
:10001E00FCFFFEFD22E933E8330470F80202E81219
:10002E0002B358046009E4CC24815006285009021A
:10003E0002F22840030202EFC0E0EB4A7044B9809E
:10004E0006D0E0FB0202DEEF4E701CBD8008EBFF17
:10005E00EAFEE9FD80EBE98DF0A4FEE5F00200F783
:10006E00E9CDF9EAFEEBFFEF89F0A4FCE5F0CE89CD
:10007E00F0A42EFFE435F0CD89F0A42DFEE435F08A
:10008E008067EF4E7005BD80D780C3EF8BF0A4ACB8
:10009E00F0EE8BF0A42CFCE435F0F8EF8AF0A42CF3
:1000AE00E5F038FCE433CB8DF0A42CFCE5F03BF806
:1000BE00EE8AF0A42CFCE5F038F8E433CF89F0A4F6
:1000CE002CFCE5F038CF3400CE89F0A42FFFE5F0FC
:1000DE003EFEE433C98DF0A42EFEE5F039CD8AF054
:1000EE00A42FFFE5F03EFEE43DFD33D0E0FB5007CC
:1000FE000BBB000F0202F2EC2CFCEF33FFEE33FED3
:06010E00ED33FD0202CA00
:100114000202F2EC5D046005E8590470030202E88F
:100124001202B3580460F6EC4860F2EC7004FDFE71
:10013400FF22C860DB2481C85009C39860025006BE
:100144000202EF9850CAF582E9294B4A7005AB8246
:100154000202DE75F0007C1A7880C3EF9BEE9AED04
:1001640099400DC3EF9BFFEE9AFEED99FDE842F036
:10017400DC23ACF0D0E0FFD0E0FED0E0FDAB822089
:10018400E7101BEB60BAEC2CFCEF33FFEE33FEED13
:1001940033FD0202CAE803F830E705C0F075F00049
:1001A400EF2FFFEE33FEED33FD40B830E7C280AAF7
:1001B40074F8CC6480CCC86480C8F58204604FC3F2
:1001C400EB9FF5F0EA9E42F0E99D42F0E89C45F091
:1001D400603C501DE5825FFFE582D313CB5BCBF41B
:1001E4002B5582FB50280ABA002409B90020088044
:1001F4001DE5825BFBE582D313CF5FCFF4C3132FDE
:100204005582FF50090EBE00050DBD00010CC3EB65
:100214009FF5F0EA9E42F0E99D42F0E89C45F060CB
:0902240007CC4820E701B3EC22ED
:10022D00ED33EC33600A047003BD8004ECB2E7FCDF
:01023D00229E
:10023E0075F020800E75F010800575F0087D007E3B
:10024E00007F003392D530D50312045FEC3340109B
:10025E00EF33FFEE33FEED33FDEC33FCD5F0ED2244
:0E026E00E5F0247EA2D513CC92E7CDCEFF2280
:10027C00EDD2E7CD33EC3392D524814006E4FFFE7A
:10028C00FDFC22FCE4CFCECDCC24E0501174FF80D9
:10029C00EDC3CC13CCCD13CDCE13CECF13CF047076
:0702AC00F030D5DE02045F13
:1002B300E9D2E7C933E833F892D5EDD2E7CD33EC91
:0702C30033FC5002B2D5220A
:1002CA00EC30E7100FBF000C0EBE00080DBD000495
:1002DA000BEB6014A2D5EB13FCED92E7FD2274FF41
:1002EA00FCFDFEFF22E480F8A2D574FF13FC7D809A
:0302FA00E480EFAE
:03000000020A836E
:0C0A8300787FE4F6D8FD75812C02046D2C
:1002FD00BB010CE58229F582E5833AF583E02250B6
:10030D0006E92582F8E622BBFE06E92582F8E222FF
:0D031D00E58229F582E5833AF583E4932219
:10032A00EF8DF0A4A8F0CF8CF0A428CE8DF0A42EE7
:02033A00FE22A1
:10033C00BC000BBE0029EF8DF084FFADF022E4CCA5
:10034C00F875F008EF2FFFEE33FEEC33FCEE9DEC6E
:10035C00984005FCEE9DFE0FD5F0E9E4CEFD22EDB4
:10036C00F8F5F0EE8420D21CFEADF075F008EF2FFE
:10037C00FFED33FD4007985006D5F0F222C398FDEF
:05038C000FD5F0EA228C
:1003910075F008758200EF2FFFEE33FECD33CDCC23
:1003A10033CCC58233C5829BED9AEC99E5829840A6
:1003B1000CF582EE9BFEED9AFDEC99FC0FD5F0D683
:1003C100E4CEFBE4CDFAE4CCF9A88222B800C1B9AD
:1003D1000059BA002DEC8BF084CFCECDFCE5F0CBEB
:1003E100F97818EF2FFFEE33FEED33FDEC33FCEB24
:1003F10033FB10D703994004EB99FB0FD8E5E4F9DF
:10040100FA227818EF2FFFEE33FEED33FDEC33FCCB
:10041100C933C910D7059BE99A4007EC9BFCE99ABF
:10042100F90FD8E0E4C9FAE4CCFB2275F010EF2F04
:10043100FFEE33FEED33FDCC33CCC833C810D70704
:100441009BEC9AE899400AED9BFDEC9AFCE899F83F
:0E0451000FD5F0DAE4CDFBE4CCFAE4C8F922D2
:0E045F00C3E49FFFE49EFEE49DFDE49CFC22AE
:00000001FF
