:100174001201E1E4FDFC7F0112010B12009A8F13BE
:10018400E5136022F515E515B40403E4F512E5154D
:10019400B40103751214E515B40203751232E515A2
:1001A400B40303751264E515FD7C007F0112010B95
:0201B40080C900
:03000B000201B639
:1001B600C0E0C0F0C0D0758AA4758CFF0514E514A4
:1001C60075F0648485F014E514C395125004D2903A
:0B01D6008002C290D0D0D0F0D0E03208
:1001F800EF4E600F7D027CC7DCFEDDFCEF1F70F068
:030208001E80ED68
:01020B0022D0
:10009A00E4F516F51720B1167F14FE1201F830B1F7
:1000AA00FD7F147E001201F875160075170120B045
:1000BA00177F147E001201F830B0FD7F147E001203
:1000CA0001F875160075170220B2177F147E001208
:1000DA0001F830B2FD7F147E001201F87516007522
:1000EA00170320B3177F147E001201F830B3FD7F87
:1000FA00147E001201F8751600751704AE16AF17B4
:01010A0022D2
:1001E1005389F0438901758AA4758CFFC28DD28C25
:0701F100D2A9D2AFC2B9226E
:0C020C000A083F065B4F666D7D077F6FA0
:10010B00EF14B40800505490012075F003A4C5837C
:10011B0025F0C5837302013802013C020140020144
:10012B0044020148020150020158020160D2A4802E
:10013B000ED2A48012D2A48016D2A4801AC2A4D24A
:10014B00A3D2A28016C2A4D2A3C2A2800EC2A4C202
:10015B00A3D2A28006C2A4C2A3C2A274082DF8E641
:09016B00F5807F017E000201F81D
:0300000002000EED
:0C000E00787FE4F6D8FD758117020055DC
:10001A00020174E493A3F8E493A34003F68001F287
:10002A0008DFF48029E493A3F85407240CC8C333E7
:10003A00C4540F4420C8834004F456800146F6DFB6
:10004A00E4800B010204081020408090020CE47E38
:10005A00019360BCA3FF543F30E509541FFEE493AB
:10006A00A360010ECF54C025E060A840B8E493A372
:10007A00FAE493A3F8E493A3C8C582C8CAC583CA9D
:10008A00F0A3C8C582C8CAC583CADFE9DEE780BE55
:0102180000E5
:00000001FF
